{
  "_format": "hh-sol-artifact-1",
  "contractName": "NFTContract",
  "sourceName": "contracts/NFTContract.sol",
  "abi": [
    {
      "inputs": [
        {
          "internalType": "address",
          "name": "roles",
          "type": "address"
        },
        {
          "internalType": "uint256",
          "name": "_slotsPerEpoch",
          "type": "uint256"
        }
      ],
      "stateMutability": "nonpayable",
      "type": "constructor"
    },
    {
      "anonymous": false,
      "inputs": [
        {
          "indexed": true,
          "internalType": "address",
          "name": "owner",
          "type": "address"
        },
        {
          "indexed": true,
          "internalType": "address",
          "name": "approved",
          "type": "address"
        },
        {
          "indexed": true,
          "internalType": "uint256",
          "name": "tokenId",
          "type": "uint256"
        }
      ],
      "name": "Approval",
      "type": "event"
    },
    {
      "anonymous": false,
      "inputs": [
        {
          "indexed": true,
          "internalType": "address",
          "name": "owner",
          "type": "address"
        },
        {
          "indexed": true,
          "internalType": "address",
          "name": "operator",
          "type": "address"
        },
        {
          "indexed": false,
          "internalType": "bool",
          "name": "approved",
          "type": "bool"
        }
      ],
      "name": "ApprovalForAll",
      "type": "event"
    },
    {
      "anonymous": false,
      "inputs": [
        {
          "indexed": false,
          "internalType": "string",
          "name": "param",
          "type": "string"
        },
        {
          "indexed": false,
          "internalType": "uint256",
          "name": "value",
          "type": "uint256"
        }
      ],
      "name": "ParameterUpdated",
      "type": "event"
    },
    {
      "anonymous": false,
      "inputs": [
        {
          "indexed": false,
          "internalType": "string",
          "name": "param",
          "type": "string"
        },
        {
          "indexed": false,
          "internalType": "address",
          "name": "subject",
          "type": "address"
        },
        {
          "indexed": false,
          "internalType": "uint256",
          "name": "value",
          "type": "uint256"
        }
      ],
      "name": "SubjectParameterUpdated",
      "type": "event"
    },
    {
      "anonymous": false,
      "inputs": [
        {
          "indexed": false,
          "internalType": "string",
          "name": "param",
          "type": "string"
        },
        {
          "indexed": false,
          "internalType": "address",
          "name": "subject",
          "type": "address"
        }
      ],
      "name": "SubjectUpdated",
      "type": "event"
    },
    {
      "anonymous": false,
      "inputs": [
        {
          "indexed": true,
          "internalType": "address",
          "name": "from",
          "type": "address"
        },
        {
          "indexed": true,
          "internalType": "address",
          "name": "to",
          "type": "address"
        },
        {
          "indexed": true,
          "internalType": "uint256",
          "name": "tokenId",
          "type": "uint256"
        }
      ],
      "name": "Transfer",
      "type": "event"
    },
    {
      "inputs": [
        {
          "internalType": "uint256",
          "name": "",
          "type": "uint256"
        }
      ],
      "name": "_charactersPlayed",
      "outputs": [
        {
          "internalType": "uint256",
          "name": "",
          "type": "uint256"
        }
      ],
      "stateMutability": "view",
      "type": "function"
    },
    {
      "inputs": [
        {
          "internalType": "uint256",
          "name": "",
          "type": "uint256"
        }
      ],
      "name": "_dependsOnCharacters",
      "outputs": [
        {
          "internalType": "uint256",
          "name": "",
          "type": "uint256"
        }
      ],
      "stateMutability": "view",
      "type": "function"
    },
    {
      "inputs": [
        {
          "internalType": "uint256",
          "name": "",
          "type": "uint256"
        }
      ],
      "name": "_dependsOnRoles",
      "outputs": [
        {
          "internalType": "uint256",
          "name": "",
          "type": "uint256"
        }
      ],
      "stateMutability": "view",
      "type": "function"
    },
    {
      "inputs": [
        {
          "internalType": "uint256",
          "name": "",
          "type": "uint256"
        }
      ],
      "name": "_rolesPlayed",
      "outputs": [
        {
          "internalType": "uint256",
          "name": "",
          "type": "uint256"
        }
      ],
      "stateMutability": "view",
      "type": "function"
    },
    {
      "inputs": [
        {
          "internalType": "address",
          "name": "to",
          "type": "address"
        },
        {
          "internalType": "uint256",
          "name": "tokenId",
          "type": "uint256"
        }
      ],
      "name": "approve",
      "outputs": [],
      "stateMutability": "nonpayable",
      "type": "function"
    },
    {
      "inputs": [
        {
          "internalType": "address",
          "name": "owner",
          "type": "address"
        }
      ],
      "name": "balanceOf",
      "outputs": [
        {
          "internalType": "uint256",
          "name": "",
          "type": "uint256"
        }
      ],
      "stateMutability": "view",
      "type": "function"
    },
    {
      "inputs": [],
      "name": "charactersPlayed",
      "outputs": [
        {
          "internalType": "uint256[]",
          "name": "",
          "type": "uint256[]"
        }
      ],
      "stateMutability": "view",
      "type": "function"
    },
    {
      "inputs": [],
      "name": "currentEpoch",
      "outputs": [
        {
          "internalType": "uint256",
          "name": "",
          "type": "uint256"
        }
      ],
      "stateMutability": "view",
      "type": "function"
    },
    {
      "inputs": [],
      "name": "dependsOnCharacters",
      "outputs": [
        {
          "internalType": "uint256[]",
          "name": "",
          "type": "uint256[]"
        }
      ],
      "stateMutability": "view",
      "type": "function"
    },
    {
      "inputs": [],
      "name": "dependsOnRoles",
      "outputs": [
        {
          "internalType": "uint256[]",
          "name": "",
          "type": "uint256[]"
        }
      ],
      "stateMutability": "view",
      "type": "function"
    },
    {
      "inputs": [
        {
          "internalType": "uint256",
          "name": "tokenId",
          "type": "uint256"
        }
      ],
      "name": "getApproved",
      "outputs": [
        {
          "internalType": "address",
          "name": "",
          "type": "address"
        }
      ],
      "stateMutability": "view",
      "type": "function"
    },
    {
      "inputs": [
        {
          "internalType": "address",
          "name": "owner",
          "type": "address"
        },
        {
          "internalType": "address",
          "name": "operator",
          "type": "address"
        }
      ],
      "name": "isApprovedForAll",
      "outputs": [
        {
          "internalType": "bool",
          "name": "",
          "type": "bool"
        }
      ],
      "stateMutability": "view",
      "type": "function"
    },
    {
      "inputs": [
        {
          "internalType": "uint256",
          "name": "",
          "type": "uint256"
        }
      ],
      "name": "mainCharacterCache",
      "outputs": [
        {
          "internalType": "address",
          "name": "",
          "type": "address"
        }
      ],
      "stateMutability": "view",
      "type": "function"
    },
    {
      "inputs": [
        {
          "components": [
            {
              "internalType": "address",
              "name": "minter",
              "type": "address"
            },
            {
              "internalType": "uint256",
              "name": "epoch",
              "type": "uint256"
            }
          ],
          "internalType": "struct NFTContract.MintData",
          "name": "mintData",
          "type": "tuple"
        },
        {
          "internalType": "bytes",
          "name": "signature",
          "type": "bytes"
        }
      ],
      "name": "mintNFT",
      "outputs": [],
      "stateMutability": "payable",
      "type": "function"
    },
    {
      "inputs": [],
      "name": "mintsInCurrentEpoch",
      "outputs": [
        {
          "internalType": "uint256",
          "name": "",
          "type": "uint256"
        }
      ],
      "stateMutability": "view",
      "type": "function"
    },
    {
      "inputs": [],
      "name": "name",
      "outputs": [
        {
          "internalType": "string",
          "name": "",
          "type": "string"
        }
      ],
      "stateMutability": "view",
      "type": "function"
    },
    {
      "inputs": [
        {
          "internalType": "uint256",
          "name": "tokenId",
          "type": "uint256"
        }
      ],
      "name": "ownerOf",
      "outputs": [
        {
          "internalType": "address",
          "name": "",
          "type": "address"
        }
      ],
      "stateMutability": "view",
      "type": "function"
    },
    {
      "inputs": [
        {
          "internalType": "address",
          "name": "",
          "type": "address"
        },
        {
          "internalType": "uint256",
          "name": "",
          "type": "uint256"
        }
      ],
      "name": "roleCache",
      "outputs": [
        {
          "internalType": "bool",
          "name": "",
          "type": "bool"
        }
      ],
      "stateMutability": "view",
      "type": "function"
    },
    {
      "inputs": [],
      "name": "roles",
      "outputs": [
        {
          "internalType": "contract Roles",
          "name": "",
          "type": "address"
        }
      ],
      "stateMutability": "view",
      "type": "function"
    },
    {
      "inputs": [],
      "name": "rolesPlayed",
      "outputs": [
        {
          "internalType": "uint256[]",
          "name": "",
          "type": "uint256[]"
        }
      ],
      "stateMutability": "view",
      "type": "function"
    },
    {
      "inputs": [
        {
          "internalType": "address",
          "name": "from",
          "type": "address"
        },
        {
          "internalType": "address",
          "name": "to",
          "type": "address"
        },
        {
          "internalType": "uint256",
          "name": "tokenId",
          "type": "uint256"
        }
      ],
      "name": "safeTransferFrom",
      "outputs": [],
      "stateMutability": "nonpayable",
      "type": "function"
    },
    {
      "inputs": [
        {
          "internalType": "address",
          "name": "from",
          "type": "address"
        },
        {
          "internalType": "address",
          "name": "to",
          "type": "address"
        },
        {
          "internalType": "uint256",
          "name": "tokenId",
          "type": "uint256"
        },
        {
          "internalType": "bytes",
          "name": "_data",
          "type": "bytes"
        }
      ],
      "name": "safeTransferFrom",
      "outputs": [],
      "stateMutability": "nonpayable",
      "type": "function"
    },
    {
      "inputs": [
        {
          "internalType": "address",
          "name": "operator",
          "type": "address"
        },
        {
          "internalType": "bool",
          "name": "approved",
          "type": "bool"
        }
      ],
      "name": "setApprovalForAll",
      "outputs": [],
      "stateMutability": "nonpayable",
      "type": "function"
    },
    {
      "inputs": [
        {
          "internalType": "uint256",
          "name": "epoch",
          "type": "uint256"
        }
      ],
      "name": "setCurrentEpoch",
      "outputs": [],
      "stateMutability": "nonpayable",
      "type": "function"
    },
    {
      "inputs": [
        {
          "internalType": "uint256",
          "name": "slots",
          "type": "uint256"
        }
      ],
      "name": "setSlotsPerEpoch",
      "outputs": [],
      "stateMutability": "nonpayable",
      "type": "function"
    },
    {
      "inputs": [],
      "name": "slotsPerEpoch",
      "outputs": [
        {
          "internalType": "uint256",
          "name": "",
          "type": "uint256"
        }
      ],
      "stateMutability": "view",
      "type": "function"
    },
    {
      "inputs": [
        {
          "internalType": "bytes4",
          "name": "interfaceId",
          "type": "bytes4"
        }
      ],
      "name": "supportsInterface",
      "outputs": [
        {
          "internalType": "bool",
          "name": "",
          "type": "bool"
        }
      ],
      "stateMutability": "view",
      "type": "function"
    },
    {
      "inputs": [],
      "name": "symbol",
      "outputs": [
        {
          "internalType": "string",
          "name": "",
          "type": "string"
        }
      ],
      "stateMutability": "view",
      "type": "function"
    },
    {
      "inputs": [
        {
          "internalType": "uint256",
          "name": "",
          "type": "uint256"
        }
      ],
      "name": "tokenIdToMintData",
      "outputs": [
        {
          "internalType": "address",
          "name": "minter",
          "type": "address"
        },
        {
          "internalType": "uint256",
          "name": "epoch",
          "type": "uint256"
        }
      ],
      "stateMutability": "view",
      "type": "function"
    },
    {
      "inputs": [
        {
          "internalType": "uint256",
          "name": "tokenId",
          "type": "uint256"
        }
      ],
      "name": "tokenURI",
      "outputs": [
        {
          "internalType": "string",
          "name": "",
          "type": "string"
        }
      ],
      "stateMutability": "view",
      "type": "function"
    },
    {
      "inputs": [
        {
          "internalType": "address",
          "name": "from",
          "type": "address"
        },
        {
          "internalType": "address",
          "name": "to",
          "type": "address"
        },
        {
          "internalType": "uint256",
          "name": "tokenId",
          "type": "uint256"
        }
      ],
      "name": "transferFrom",
      "outputs": [],
      "stateMutability": "nonpayable",
      "type": "function"
    },
    {
      "inputs": [
        {
          "internalType": "uint256",
          "name": "role",
          "type": "uint256"
        }
      ],
      "name": "updateMainCharacterCache",
      "outputs": [],
      "stateMutability": "nonpayable",
      "type": "function"
    },
    {
      "inputs": [
        {
          "internalType": "uint256",
          "name": "role",
          "type": "uint256"
        },
        {
          "internalType": "address",
          "name": "contr",
          "type": "address"
        }
      ],
      "name": "updateRoleCache",
      "outputs": [],
      "stateMutability": "nonpayable",
      "type": "function"
    },
    {
      "inputs": [
        {
          "internalType": "address",
          "name": "",
          "type": "address"
        },
        {
          "internalType": "uint256",
          "name": "",
          "type": "uint256"
        }
      ],
      "name": "usedSignatures",
      "outputs": [
        {
          "internalType": "bool",
          "name": "",
          "type": "bool"
        }
      ],
      "stateMutability": "view",
      "type": "function"
    },
    {
      "inputs": [
        {
          "components": [
            {
              "internalType": "address",
              "name": "minter",
              "type": "address"
            },
            {
              "internalType": "uint256",
              "name": "epoch",
              "type": "uint256"
            }
          ],
          "internalType": "struct NFTContract.MintData",
          "name": "mintData",
          "type": "tuple"
        },
        {
          "internalType": "bytes",
          "name": "signature",
          "type": "bytes"
        }
      ],
      "name": "verifyMintData",
      "outputs": [
        {
          "internalType": "bool",
          "name": "",
          "type": "bool"
        }
      ],
      "stateMutability": "view",
      "type": "function"
    },
    {
      "inputs": [
        {
          "internalType": "uint256",
          "name": "tokenId",
          "type": "uint256"
        }
      ],
      "name": "viewMintData",
      "outputs": [
        {
          "components": [
            {
              "internalType": "address",
              "name": "minter",
              "type": "address"
            },
            {
              "internalType": "uint256",
              "name": "epoch",
              "type": "uint256"
            }
          ],
          "internalType": "struct NFTContract.MintData",
          "name": "",
          "type": "tuple"
        }
      ],
      "stateMutability": "view",
      "type": "function"
    }
  ],
  "bytecode": "0x6101606040523480156200001257600080fd5b5060405162002cb838038062002cb88339810160408190526200003591620002fb565b6040518060400160405280600b81526020016a13919510dbdb9d1c9858dd60aa1b815250604051806040016040528060018152602001603160f81b815250836040518060400160405280600b81526020016a13919510dbdb9d1c9858dd60aa1b81525060405180604001604052806006815260200165135354d353d360d21b8152508160009080519060200190620000cf92919062000255565b508051620000e590600190602084019062000255565b50506001600755506001600160a01b038116620001535760405162461bcd60e51b815260206004820152602260248201527f506c656173652070726f766964652076616c696420726f6c6573206164647265604482015261737360f01b606482015260840160405180910390fd5b60601b6001600160601b03191660805281516020808401919091208251918301919091206101008290526101208190524660c0527f8b73c3c69bb8fe3d512ecc4cf759cc79239f7b179b0ffacaa9a75d522b39400f620001f88184846040805160208101859052908101839052606081018290524660808201523060a082015260009060c0016040516020818303038152906040528051906020012090509392505050565b60a0523060601b60e052610140525050600c805460018101825560009182526103ec7fdf6966c971051c3d54ec59162606531493a51404a002842f56009d7e5cf4a8c7909101554260115560129390935550506013555062000372565b828054620002639062000335565b90600052602060002090601f016020900481019282620002875760008555620002d2565b82601f10620002a257805160ff1916838001178555620002d2565b82800160010185558215620002d2579182015b82811115620002d2578251825591602001919060010190620002b5565b50620002e0929150620002e4565b5090565b5b80821115620002e05760008155600101620002e5565b600080604083850312156200030e578182fd5b82516001600160a01b038116811462000325578283fd5b6020939093015192949293505050565b600181811c908216806200034a57607f821691505b602082108114156200036c57634e487b7160e01b600052602260045260246000fd5b50919050565b60805160601c60a05160c05160e05160601c6101005161012051610140516128d0620003e86000396000611b4b01526000611b9a01526000611b7501526000611acc01526000611af601526000611b2001526000818161030b015281816107ff01528181610b9601526114e501526128d06000f3fe60806040526004361061019f5760003560e01c806301ffc9a7146101a457806306fdde03146101d9578063071060a6146101fb578063081812fc1461021d578063095ea7b3146102555780631d380579146102755780631dd6b9b11461029557806323b872dd146102b55780632c190d94146102d5578063392f5f64146102f95780633e1577d01461032d57806342842e0e14610343578063447d52ba146103635780634a7a7f41146103835780636352211e146103a55780636caa9c11146103c55780636d27e0ca146103e5578063705e61c61461046b57806370a08231146104a657806376671808146104c65780637a1a04df146104dc5780637dad209b146105175780638f916d401461052c57806395d89b411461057a578063a22cb4651461058f578063abcbc4fc146105af578063aeb38d8b146105cf578063b88d4fde146105ef578063bf184ea41461060f578063c87b56dd1461062f578063d2c8ecbb1461064f578063dc94cb7d1461066f578063e8ea4fae14610684578063e985e9c514610699578063e9c3f77d146106b9578063ef31988c146106ef575b600080fd5b3480156101b057600080fd5b506101c46101bf3660046123c7565b610702565b60405190151581526020015b60405180910390f35b3480156101e557600080fd5b506101ee610756565b6040516101d091906125d3565b34801561020757600080fd5b5061021b6102163660046124a2565b6107e9565b005b34801561022957600080fd5b5061023d6102383660046124a2565b6108af565b6040516001600160a01b0390911681526020016101d0565b34801561026157600080fd5b5061021b610270366004612380565b61093c565b34801561028157600080fd5b506101c461029036600461246c565b610a4d565b3480156102a157600080fd5b5061021b6102b03660046124a2565b610afa565b3480156102c157600080fd5b5061021b6102d03660046122aa565b610b33565b3480156102e157600080fd5b506102eb60135481565b6040519081526020016101d0565b34801561030557600080fd5b5061023d7f000000000000000000000000000000000000000000000000000000000000000081565b34801561033957600080fd5b506102eb60125481565b34801561034f57600080fd5b5061021b61035e3660046122aa565b610b64565b34801561036f57600080fd5b5061021b61037e3660046124ba565b610b7f565b34801561038f57600080fd5b50610398610c55565b6040516101d0919061258f565b3480156103b157600080fd5b5061023d6103c03660046124a2565b610cac565b3480156103d157600080fd5b506102eb6103e03660046124a2565b610d23565b3480156103f157600080fd5b506104476104003660046124a2565b6040805180820190915260008082526020820152506000908152600f6020908152604091829020825180840190935280546001600160a01b03168352600101549082015290565b6040805182516001600160a01b0316815260209283015192810192909252016101d0565b34801561047757600080fd5b506101c4610486366004612380565b600e60209081526000928352604080842090915290825290205460ff1681565b3480156104b257600080fd5b506102eb6104c136600461223a565b610d44565b3480156104d257600080fd5b506102eb60115481565b3480156104e857600080fd5b506101c46104f7366004612380565b600960209081526000928352604080842090915290825290205460ff1681565b34801561052357600080fd5b50610398610dcb565b34801561053857600080fd5b5061056c6105473660046124a2565b600f60205260009081526040902080546001909101546001600160a01b039091169082565b6040516101d0929190612576565b34801561058657600080fd5b506101ee610e21565b34801561059b57600080fd5b5061021b6105aa366004612353565b610e30565b3480156105bb57600080fd5b506102eb6105ca3660046124a2565b610e3f565b3480156105db57600080fd5b506102eb6105ea3660046124a2565b610e4f565b3480156105fb57600080fd5b5061021b61060a3660046122ea565b610e5f565b34801561061b57600080fd5b506102eb61062a3660046124a2565b610e97565b34801561063b57600080fd5b506101ee61064a3660046124a2565b610ea7565b34801561065b57600080fd5b5061021b61066a3660046124a2565b61101f565b34801561067b57600080fd5b50610398611058565b34801561069057600080fd5b506103986110ae565b3480156106a557600080fd5b506101c46106b4366004612272565b611104565b3480156106c557600080fd5b5061023d6106d43660046124a2565b6008602052600090815260409020546001600160a01b031681565b61021b6106fd3660046123ff565b611132565b60006001600160e01b031982166380ac58cd60e01b148061073357506001600160e01b03198216635b5e139f60e01b145b8061074e57506301ffc9a760e01b6001600160e01b03198316145b90505b919050565b6060600080546107659061275f565b80601f01602080910402602001604051908101604052809291908181526020018280546107919061275f565b80156107de5780601f106107b3576101008083540402835291602001916107de565b820191906000526020600020905b8154815290600101906020018083116107c157829003601f168201915b505050505090505b90565b60405163b4ed0b6d60e01b8152600481018290527f00000000000000000000000000000000000000000000000000000000000000006001600160a01b03169063b4ed0b6d9060240160206040518083038186803b15801561084957600080fd5b505afa15801561085d573d6000803e3d6000fd5b505050506040513d601f19601f820116820180604052508101906108819190612256565b60009182526008602052604090912080546001600160a01b0319166001600160a01b03909216919091179055565b60006108ba826113e4565b6109205760405162461bcd60e51b815260206004820152602c60248201527f4552433732313a20617070726f76656420717565727920666f72206e6f6e657860448201526b34b9ba32b73a103a37b5b2b760a11b60648201526084015b60405180910390fd5b506000908152600460205260409020546001600160a01b031690565b600061094782610cac565b9050806001600160a01b0316836001600160a01b031614156109b55760405162461bcd60e51b815260206004820152602160248201527f4552433732313a20617070726f76616c20746f2063757272656e74206f776e656044820152603960f91b6064820152608401610917565b336001600160a01b03821614806109d157506109d181336106b4565b610a3e5760405162461bcd60e51b815260206004820152603860248201527f4552433732313a20617070726f76652063616c6c6572206973206e6f74206f776044820152771b995c881b9bdc88185c1c1c9bdd995908199bdc88185b1b60421b6064820152608401610917565b610a488383611401565b505050565b600080610ac57f343612373da619a28f50007edf397ac142de537e4bf29673e7ccc7fe1f982c2185600001518660200151604051602001610aaa939291909283526001600160a01b03919091166020830152604082015260600190565b6040516020818303038152906040528051906020012061146f565b90506000610ad382856114bd565b9050806001600160a01b0316610ae76114e1565b6001600160a01b03161495945050505050565b33610b036114e1565b6001600160a01b031614610b295760405162461bcd60e51b815260040161091790612638565b6011556000601355565b610b3d3382611579565b610b595760405162461bcd60e51b81526004016109179061266f565b610a4883838361163b565b610a4883838360405180602001604052806000815250610e5f565b60405163f0723d9760e01b81526001600160a01b037f0000000000000000000000000000000000000000000000000000000000000000169063f0723d9790610bcd9084908690600401612576565b60206040518083038186803b158015610be557600080fd5b505afa158015610bf9573d6000803e3d6000fd5b505050506040513d601f19601f82011682018060405250810190610c1d91906123ab565b6001600160a01b0391909116600090815260096020908152604080832094835293905291909120805460ff1916911515919091179055565b6060600b8054806020026020016040519081016040528092919081815260200182805480156107de57602002820191906000526020600020905b815481526020019060010190808311610c8f575050505050905090565b6000818152600260205260408120546001600160a01b03168061074e5760405162461bcd60e51b815260206004820152602960248201527f4552433732313a206f776e657220717565727920666f72206e6f6e657869737460448201526832b73a103a37b5b2b760b91b6064820152608401610917565b600d8181548110610d3357600080fd5b600091825260209091200154905081565b60006001600160a01b038216610daf5760405162461bcd60e51b815260206004820152602a60248201527f4552433732313a2062616c616e636520717565727920666f7220746865207a65604482015269726f206164647265737360b01b6064820152608401610917565b506001600160a01b031660009081526003602052604090205490565b6060600c8054806020026020016040519081016040528092919081815260200182805480156107de5760200282019190600052602060002090815481526020019060010190808311610c8f575050505050905090565b6060600180546107659061275f565b610e3b3383836117c9565b5050565b600a8181548110610d3357600080fd5b600c8181548110610d3357600080fd5b610e693383611579565b610e855760405162461bcd60e51b81526004016109179061266f565b610e9184848484611894565b50505050565b600b8181548110610d3357600080fd5b6060610eb2826113e4565b610f185760405162461bcd60e51b815260206004820152603160248201527f45524337323155524953746f726167653a2055524920717565727920666f72206044820152703737b732bc34b9ba32b73a103a37b5b2b760791b6064820152608401610917565b60008281526006602052604081208054610f319061275f565b80601f0160208091040260200160405190810160405280929190818152602001828054610f5d9061275f565b8015610faa5780601f10610f7f57610100808354040283529160200191610faa565b820191906000526020600020905b815481529060010190602001808311610f8d57829003601f168201915b505050505090506000610fc860408051602081019091526000815290565b9050805160001415610fdc57509050610751565b81511561100e578082604051602001610ff692919061250a565b60405160208183030381529060405292505050610751565b611017846118c7565b949350505050565b336110286114e1565b6001600160a01b03161461104e5760405162461bcd60e51b815260040161091790612638565b6012556000601355565b6060600a8054806020026020016040519081016040528092919081815260200182805480156107de5760200282019190600052602060002090815481526020019060010190808311610c8f575050505050905090565b6060600d8054806020026020016040519081016040528092919081815260200182805480156107de5760200282019190600052602060002090815481526020019060010190808311610c8f575050505050905090565b6001600160a01b03918216600090815260056020908152604080832093909416825291909152205460ff1690565b600260075414156111855760405162461bcd60e51b815260206004820152601f60248201527f5265656e7472616e637947756172643a207265656e7472616e742063616c6c006044820152606401610917565b60026007556011546020830135146111db5760405162461bcd60e51b8152602060048201526019602482015278496e76616c69642065706f636820666f72206d696e74696e6760381b6044820152606401610917565b601254601354106112475760405162461bcd60e51b815260206004820152603060248201527f416c6c20736c6f747320666f72207468652063757272656e742065706f63682060448201526f1a185d99481899595b88199a5b1b195960821b6064820152608401610917565b600e6000611258602085018561223a565b6001600160a01b031681526020808201929092526040908101600090812085840135825290925290205460ff16156112d25760405162461bcd60e51b815260206004820152601f60248201527f5369676e61747572652068617320616c7265616479206265656e2075736564006044820152606401610917565b6112ea6112e436849003840184612451565b82610a4d565b6113365760405162461bcd60e51b815260206004820181905260248201527f566572696669636174696f6e206f66206d696e742064617461206661696c65646044820152606401610917565b611344601080546001019055565b600061134f60105490565b905061135b338261199f565b6000818152600f602052604090208390611375828261280b565b5050601380549060006113878361279a565b9091555060019050600e60006113a0602087018761223a565b6001600160a01b031681526020808201929092526040908101600090812096830135815295909152909320805460ff19169315159390931790925550506001600755565b6000908152600260205260409020546001600160a01b0316151590565b600081815260046020526040902080546001600160a01b0319166001600160a01b038416908117909155819061143682610cac565b6001600160a01b03167f8c5be1e5ebec7d5bd14f71427d1e84f3dd0314c0f7b2291e5b200ac8c7c3b92560405160405180910390a45050565b600061074e61147c611abf565b8360405161190160f01b6020820152602281018390526042810182905260009060620160405160208183030381529060405280519060200120905092915050565b60008060006114cc8585611bea565b915091506114d981611c5a565b509392505050565b60007f00000000000000000000000000000000000000000000000000000000000000006001600160a01b0316638da5cb5b6040518163ffffffff1660e01b815260040160206040518083038186803b15801561153c57600080fd5b505afa158015611550573d6000803e3d6000fd5b505050506040513d601f19601f820116820180604052508101906115749190612256565b905090565b6000611584826113e4565b6115e55760405162461bcd60e51b815260206004820152602c60248201527f4552433732313a206f70657261746f7220717565727920666f72206e6f6e657860448201526b34b9ba32b73a103a37b5b2b760a11b6064820152608401610917565b60006115f083610cac565b9050806001600160a01b0316846001600160a01b0316148061162b5750836001600160a01b0316611620846108af565b6001600160a01b0316145b8061101757506110178185611104565b826001600160a01b031661164e82610cac565b6001600160a01b0316146116b65760405162461bcd60e51b815260206004820152602960248201527f4552433732313a207472616e73666572206f6620746f6b656e2074686174206960448201526839903737ba1037bbb760b91b6064820152608401610917565b6001600160a01b0382166117185760405162461bcd60e51b8152602060048201526024808201527f4552433732313a207472616e7366657220746f20746865207a65726f206164646044820152637265737360e01b6064820152608401610917565b611723600082611401565b6001600160a01b038316600090815260036020526040812080546001929061174c90849061271c565b90915550506001600160a01b038216600090815260036020526040812080546001929061177a9084906126f0565b909155505060008181526002602052604080822080546001600160a01b0319166001600160a01b03868116918217909255915184939187169160008051602061287b83398151915291a4505050565b816001600160a01b0316836001600160a01b031614156118275760405162461bcd60e51b815260206004820152601960248201527822a9219b99189d1030b8383937bb32903a379031b0b63632b960391b6044820152606401610917565b6001600160a01b03838116600081815260056020908152604080832094871680845294825291829020805460ff191686151590811790915591519182527f17307eab39ab6107e8899845ad3d59bd9653f200f220920489ca2b5937696c31910160405180910390a3505050565b61189f84848461163b565b6118ab84848484611e5b565b610e915760405162461bcd60e51b8152600401610917906125e6565b60606118d2826113e4565b6119365760405162461bcd60e51b815260206004820152602f60248201527f4552433732314d657461646174613a2055524920717565727920666f72206e6f60448201526e3732bc34b9ba32b73a103a37b5b2b760891b6064820152608401610917565b600061194d60408051602081019091526000815290565b9050600081511161196d5760405180602001604052806000815250611998565b8061197784611f68565b60405160200161198892919061250a565b6040516020818303038152906040525b9392505050565b6001600160a01b0382166119f55760405162461bcd60e51b815260206004820181905260248201527f4552433732313a206d696e7420746f20746865207a65726f20616464726573736044820152606401610917565b6119fe816113e4565b15611a4a5760405162461bcd60e51b815260206004820152601c60248201527b115490cdcc8c4e881d1bdad95b88185b1c9958591e481b5a5b9d195960221b6044820152606401610917565b6001600160a01b0382166000908152600360205260408120805460019290611a739084906126f0565b909155505060008181526002602052604080822080546001600160a01b0319166001600160a01b038616908117909155905183929060008051602061287b833981519152908290a45050565b6000306001600160a01b037f000000000000000000000000000000000000000000000000000000000000000016148015611b1857507f000000000000000000000000000000000000000000000000000000000000000046145b15611b4457507f00000000000000000000000000000000000000000000000000000000000000006107e6565b50604080517f00000000000000000000000000000000000000000000000000000000000000006020808301919091527f0000000000000000000000000000000000000000000000000000000000000000828401527f000000000000000000000000000000000000000000000000000000000000000060608301524660808301523060a0808401919091528351808403909101815260c090920190925280519101206107e6565b600080825160411415611c215760208301516040840151606085015160001a611c1587828585612082565b94509450505050611c53565b825160401415611c4b5760208301516040840151611c40868383612165565b935093505050611c53565b506000905060025b9250929050565b6000816004811115611c7c57634e487b7160e01b600052602160045260246000fd5b1415611c8757611e58565b6001816004811115611ca957634e487b7160e01b600052602160045260246000fd5b1415611cf25760405162461bcd60e51b815260206004820152601860248201527745434453413a20696e76616c6964207369676e617475726560401b6044820152606401610917565b6002816004811115611d1457634e487b7160e01b600052602160045260246000fd5b1415611d625760405162461bcd60e51b815260206004820152601f60248201527f45434453413a20696e76616c6964207369676e6174757265206c656e677468006044820152606401610917565b6003816004811115611d8457634e487b7160e01b600052602160045260246000fd5b1415611ddd5760405162461bcd60e51b815260206004820152602260248201527f45434453413a20696e76616c6964207369676e6174757265202773272076616c604482015261756560f01b6064820152608401610917565b6004816004811115611dff57634e487b7160e01b600052602160045260246000fd5b1415611e585760405162461bcd60e51b815260206004820152602260248201527f45434453413a20696e76616c6964207369676e6174757265202776272076616c604482015261756560f01b6064820152608401610917565b50565b60006001600160a01b0384163b15611f5d57604051630a85bd0160e11b81526001600160a01b0385169063150b7a0290611e9f903390899088908890600401612539565b602060405180830381600087803b158015611eb957600080fd5b505af1925050508015611ee9575060408051601f3d908101601f19168201909252611ee6918101906123e3565b60015b611f43573d808015611f17576040519150601f19603f3d011682016040523d82523d6000602084013e611f1c565b606091505b508051611f3b5760405162461bcd60e51b8152600401610917906125e6565b805181602001fd5b6001600160e01b031916630a85bd0160e11b149050611017565b506001949350505050565b606081611f8d57506040805180820190915260018152600360fc1b6020820152610751565b8160005b8115611fb75780611fa18161279a565b9150611fb09050600a83612708565b9150611f91565b6000816001600160401b03811115611fdf57634e487b7160e01b600052604160045260246000fd5b6040519080825280601f01601f191660200182016040528015612009576020820181803683370190505b5090505b84156110175761201e60018361271c565b915061202b600a866127b5565b6120369060306126f0565b60f81b81838151811061205957634e487b7160e01b600052603260045260246000fd5b60200101906001600160f81b031916908160001a90535061207b600a86612708565b945061200d565b6000806fa2a8918ca85bafe22016d0b997e4df60600160ff1b038311156120af575060009050600361215c565b8460ff16601b141580156120c757508460ff16601c14155b156120d8575060009050600461215c565b6040805160008082526020820180845289905260ff881692820192909252606081018690526080810185905260019060a0016020604051602081039080840390855afa15801561212c573d6000803e3d6000fd5b5050604051601f1901519150506001600160a01b0381166121555760006001925092505061215c565b9150600090505b94509492505050565b6000806001600160ff1b03831660ff84901c601b0161218687828885612082565b935093505050935093915050565b600082601f8301126121a4578081fd5b81356001600160401b038111156121bd576121bd6127f5565b6121d0601f8201601f19166020016126c0565b8181528460208386010111156121e4578283fd5b816020850160208301379081016020019190915292915050565b60006040828403121561220f578081fd5b61221960406126c0565b9050813561222681612841565b808252506020820135602082015292915050565b60006020828403121561224b578081fd5b813561199881612841565b600060208284031215612267578081fd5b815161199881612841565b60008060408385031215612284578081fd5b823561228f81612841565b9150602083013561229f81612841565b809150509250929050565b6000806000606084860312156122be578081fd5b83356122c981612841565b925060208401356122d981612841565b929592945050506040919091013590565b600080600080608085870312156122ff578081fd5b843561230a81612841565b9350602085013561231a81612841565b92506040850135915060608501356001600160401b0381111561233b578182fd5b61234787828801612194565b91505092959194509250565b60008060408385031215612365578182fd5b823561237081612841565b9150602083013561229f81612856565b60008060408385031215612392578182fd5b823561239d81612841565b946020939093013593505050565b6000602082840312156123bc578081fd5b815161199881612856565b6000602082840312156123d8578081fd5b813561199881612864565b6000602082840312156123f4578081fd5b815161199881612864565b6000808284036060811215612412578283fd5b604081121561241f578283fd5b5082915060408201356001600160401b0381111561243b578182fd5b61244785828601612194565b9150509250929050565b600060408284031215612462578081fd5b61199883836121fe565b6000806060838503121561247e578182fd5b61248884846121fe565b915060408301356001600160401b0381111561243b578182fd5b6000602082840312156124b3578081fd5b5035919050565b600080604083850312156124cc578182fd5b82359150602083013561229f81612841565b600081518084526124f6816020860160208601612733565b601f01601f19169290920160200192915050565b6000835161251c818460208801612733565b835190830190612530818360208801612733565b01949350505050565b6001600160a01b038581168252841660208201526040810183905260806060820181905260009061256c908301846124de565b9695505050505050565b6001600160a01b03929092168252602082015260400190565b6020808252825182820181905260009190848201906040850190845b818110156125c7578351835292840192918401916001016125ab565b50909695505050505050565b60006020825261199860208301846124de565b60208082526032908201527f4552433732313a207472616e7366657220746f206e6f6e20455243373231526560408201527131b2b4bb32b91034b6b83632b6b2b73a32b960711b606082015260800190565b6020808252601e908201527f526f6c65733a2063616c6c6572206973206e6f7420746865206f776e65720000604082015260600190565b60208082526031908201527f4552433732313a207472616e736665722063616c6c6572206973206e6f74206f6040820152701ddb995c881b9bdc88185c1c1c9bdd9959607a1b606082015260800190565b604051601f8201601f191681016001600160401b03811182821017156126e8576126e86127f5565b604052919050565b60008219821115612703576127036127c9565b500190565b600082612717576127176127df565b500490565b60008282101561272e5761272e6127c9565b500390565b60005b8381101561274e578181015183820152602001612736565b83811115610e915750506000910152565b600181811c9082168061277357607f821691505b6020821081141561279457634e487b7160e01b600052602260045260246000fd5b50919050565b60006000198214156127ae576127ae6127c9565b5060010190565b6000826127c4576127c46127df565b500690565b634e487b7160e01b600052601160045260246000fd5b634e487b7160e01b600052601260045260246000fd5b634e487b7160e01b600052604160045260246000fd5b813561281681612841565b81546001600160a01b0319166001600160a01b03919091161781556020919091013560019190910155565b6001600160a01b0381168114611e5857600080fd5b8015158114611e5857600080fd5b6001600160e01b031981168114611e5857600080fdfeddf252ad1be2c89b69c2b068fc378daa952ba7f163c4a11628f55a4df523b3efa2646970667358221220c1e44e442478b55d99c75b4f1938cbdd226a89473752c071cdc298c281e2c21864736f6c63430008030033",
  "linkReferences": {},
  "deployedLinkReferences": {}
}